{
  "contractName": "Lottery",
  "abi": [
    {
      "inputs": [],
      "stateMutability": "nonpayable",
      "type": "constructor"
    },
    {
      "inputs": [
        {
          "internalType": "uint256",
          "name": "",
          "type": "uint256"
        }
      ],
      "name": "players",
      "outputs": [
        {
          "internalType": "address payable",
          "name": "",
          "type": "address"
        }
      ],
      "stateMutability": "view",
      "type": "function",
      "constant": true
    },
    {
      "inputs": [],
      "name": "winner",
      "outputs": [
        {
          "internalType": "address payable",
          "name": "",
          "type": "address"
        }
      ],
      "stateMutability": "view",
      "type": "function",
      "constant": true
    },
    {
      "stateMutability": "payable",
      "type": "receive",
      "payable": true
    },
    {
      "inputs": [],
      "name": "getBalance",
      "outputs": [
        {
          "internalType": "uint256",
          "name": "",
          "type": "uint256"
        }
      ],
      "stateMutability": "view",
      "type": "function",
      "constant": true
    },
    {
      "inputs": [],
      "name": "pickWinner",
      "outputs": [],
      "stateMutability": "nonpayable",
      "type": "function"
    },
    {
      "inputs": [],
      "name": "allPlayers",
      "outputs": [
        {
          "internalType": "address payable[]",
          "name": "",
          "type": "address[]"
        }
      ],
      "stateMutability": "view",
      "type": "function",
      "constant": true
    }
  ],
  "bytecode": "0x608060405234801561001057600080fd5b5033600160006101000a81548173ffffffffffffffffffffffffffffffffffffffff021916908373ffffffffffffffffffffffffffffffffffffffff160217905550610aca806100616000396000f3fe60806040526004361061004e5760003560e01c806312065fe0146101075780635d495aea14610132578063b0ec809414610149578063dfbf53ae14610174578063f71d96cb1461019f57610102565b3661010257670de0b6b3a7640000341461009d576040517f08c379a000000000000000000000000000000000000000000000000000000000815260040161009490610932565b60405180910390fd5b6000339080600181540180825580915050600190039060005260206000200160009091909190916101000a81548173ffffffffffffffffffffffffffffffffffffffff021916908373ffffffffffffffffffffffffffffffffffffffff160217905550005b600080fd5b34801561011357600080fd5b5061011c6101dc565b6040516101299190610972565b60405180910390f35b34801561013e57600080fd5b50610147610274565b005b34801561015557600080fd5b5061015e61050c565b60405161016b91906108f0565b60405180910390f35b34801561018057600080fd5b5061018961059a565b60405161019691906108d5565b60405180910390f35b3480156101ab57600080fd5b506101c660048036038101906101c191906106f5565b6105c0565b6040516101d391906108d5565b60405180910390f35b60003373ffffffffffffffffffffffffffffffffffffffff16600160009054906101000a900473ffffffffffffffffffffffffffffffffffffffff1673ffffffffffffffffffffffffffffffffffffffff161461026e576040517f08c379a000000000000000000000000000000000000000000000000000000000815260040161026590610952565b60405180910390fd5b47905090565b600160009054906101000a900473ffffffffffffffffffffffffffffffffffffffff1673ffffffffffffffffffffffffffffffffffffffff163373ffffffffffffffffffffffffffffffffffffffff1614610304576040517f08c379a00000000000000000000000000000000000000000000000000000000081526004016102fb90610952565b60405180910390fd5b6003600080549050101561034d576040517f08c379a000000000000000000000000000000000000000000000000000000000815260040161034490610912565b60405180910390fd5b60006103576105ff565b9050600080805490508261036b9190610a1d565b9050600081815481106103a7577f4e487b7100000000000000000000000000000000000000000000000000000000600052603260045260246000fd5b9060005260206000200160009054906101000a900473ffffffffffffffffffffffffffffffffffffffff16600260006101000a81548173ffffffffffffffffffffffffffffffffffffffff021916908373ffffffffffffffffffffffffffffffffffffffff160217905550600260009054906101000a900473ffffffffffffffffffffffffffffffffffffffff1673ffffffffffffffffffffffffffffffffffffffff166108fc6104566101dc565b9081150290604051600060405180830381858888f19350505050158015610481573d6000803e3d6000fd5b50600067ffffffffffffffff8111156104c3577f4e487b7100000000000000000000000000000000000000000000000000000000600052604160045260246000fd5b6040519080825280602002602001820160405280156104f15781602001602082028036833780820191505090505b5060009080519060200190610507929190610639565b505050565b6060600080548060200260200160405190810160405280929190818152602001828054801561059057602002820191906000526020600020905b8160009054906101000a900473ffffffffffffffffffffffffffffffffffffffff1673ffffffffffffffffffffffffffffffffffffffff1681526020019060010190808311610546575b5050505050905090565b600260009054906101000a900473ffffffffffffffffffffffffffffffffffffffff1681565b600081815481106105d057600080fd5b906000526020600020016000915054906101000a900473ffffffffffffffffffffffffffffffffffffffff1681565b6000444260008054905060405160200161061b93929190610898565b6040516020818303038152906040528051906020012060001c905090565b8280548282559060005260206000209081019282156106b2579160200282015b828111156106b15782518260006101000a81548173ffffffffffffffffffffffffffffffffffffffff021916908373ffffffffffffffffffffffffffffffffffffffff16021790555091602001919060010190610659565b5b5090506106bf91906106c3565b5090565b5b808211156106dc5760008160009055506001016106c4565b5090565b6000813590506106ef81610a7d565b92915050565b60006020828403121561070757600080fd5b6000610715848285016106e0565b91505092915050565b600061072a8383610736565b60208301905092915050565b61073f816109d7565b82525050565b61074e816109d7565b82525050565b600061075f8261099d565b61076981856109b5565b93506107748361098d565b8060005b838110156107a557815161078c888261071e565b9750610797836109a8565b925050600181019050610778565b5085935050505092915050565b60006107bf6017836109c6565b91507f706c617965727320617265206c657373207468616e20330000000000000000006000830152602082019050919050565b60006107ff6016836109c6565b91507f796f75206861766520746f2070617920316574686572000000000000000000006000830152602082019050919050565b600061083f6013836109c6565b91507f796f7520617265206e6f74206d616e61676572000000000000000000000000006000830152602082019050919050565b61087b81610a09565b82525050565b61089261088d82610a09565b610a13565b82525050565b60006108a48286610881565b6020820191506108b48285610881565b6020820191506108c48284610881565b602082019150819050949350505050565b60006020820190506108ea6000830184610745565b92915050565b6000602082019050818103600083015261090a8184610754565b905092915050565b6000602082019050818103600083015261092b816107b2565b9050919050565b6000602082019050818103600083015261094b816107f2565b9050919050565b6000602082019050818103600083015261096b81610832565b9050919050565b60006020820190506109876000830184610872565b92915050565b6000819050602082019050919050565b600081519050919050565b6000602082019050919050565b600082825260208201905092915050565b600082825260208201905092915050565b60006109e2826109e9565b9050919050565b600073ffffffffffffffffffffffffffffffffffffffff82169050919050565b6000819050919050565b6000819050919050565b6000610a2882610a09565b9150610a3383610a09565b925082610a4357610a42610a4e565b5b828206905092915050565b7f4e487b7100000000000000000000000000000000000000000000000000000000600052601260045260246000fd5b610a8681610a09565b8114610a9157600080fd5b5056fea2646970667358221220eeef189e3f928b0d01ce36facaef0b2c00d2dba7e1bddf2fe24c582928f298d964736f6c63430008000033",
  "immutableReferences": {},
  "source": "// SPDX-License-Identifier: MIT\r\npragma solidity >=0.5.0 <0.9.0;\r\n\r\ncontract Lottery {\r\n    address payable[] public players;\r\n    address manager;\r\n    address payable public winner;\r\n\r\n    constructor(){\r\n        manager=msg.sender;\r\n    }\r\n\r\n    receive() external payable{\r\n        require(msg.value==1 ether,\"you have to pay 1ether\");\r\n        players.push(payable(msg.sender));\r\n    }\r\n\r\n    function getBalance() public view returns(uint){\r\n        require(manager==msg.sender,\"you are not manager\");\r\n        return address(this).balance;\r\n    }\r\n\r\n    function random() internal view returns(uint){\r\n        return uint(keccak256(abi.encodePacked(block.difficulty,block.timestamp,players.length)));\r\n    }\r\n\r\n    function pickWinner() public {\r\n        require(msg.sender==manager,\"you are not manager\");\r\n        require(players.length>=3,\"players are less than 3\");\r\n        uint r=random();\r\n        uint index = r%players.length;\r\n        winner = players[index];\r\n        winner.transfer(getBalance());\r\n        players = new address payable[](0);\r\n    }\r\n\r\n    function allPlayers() public view returns (address payable[] memory){\r\n        return players;\r\n    }\r\n}",
  "sourcePath": "C:\\Users\\Admin\\Desktop\\blockchain projects\\DEFI\\lot\\Dapp_Lottery\\contracts\\Lottery.sol",
  "compiler": {
    "name": "solc",
    "version": "0.8.0+commit.c7dfd78e.Emscripten.clang"
  },
  "schemaVersion": "3.4.14",
  "updatedAt": "2023-05-27T07:59:34.702Z",
  "networkType": "ethereum",
  "devdoc": {
    "kind": "dev",
    "methods": {},
    "version": 1
  },
  "userdoc": {
    "kind": "user",
    "methods": {},
    "version": 1
  }
}